{
  "contractName": "Football",
  "abi": [
    {
      "inputs": [],
      "payable": false,
      "stateMutability": "nonpayable",
      "type": "constructor",
      "signature": "constructor"
    },
    {
      "anonymous": false,
      "inputs": [
        {
          "indexed": false,
          "name": "playerId",
          "type": "uint256"
        },
        {
          "indexed": false,
          "name": "cost",
          "type": "uint256"
        }
      ],
      "name": "BuyPlayerEvent",
      "type": "event",
      "signature": "0x9a4f32625b2bfc4bde96e2a4b1181108991581e1a2658c63c3e20f3ac83f7f2d"
    },
    {
      "anonymous": false,
      "inputs": [
        {
          "indexed": false,
          "name": "playerId",
          "type": "uint256"
        },
        {
          "indexed": false,
          "name": "price",
          "type": "uint256"
        }
      ],
      "name": "PrepareTransferEvent",
      "type": "event",
      "signature": "0x290a2094c17608b441204837126eae55c1be59bc7c49df1664f37dfddce39322"
    },
    {
      "constant": false,
      "inputs": [
        {
          "name": "_name",
          "type": "string"
        },
        {
          "name": "_age",
          "type": "uint8"
        }
      ],
      "name": "addPlayer",
      "outputs": [],
      "payable": false,
      "stateMutability": "nonpayable",
      "type": "function",
      "signature": "0x54e79027"
    },
    {
      "constant": false,
      "inputs": [
        {
          "name": "_playerId",
          "type": "uint256"
        }
      ],
      "name": "buyPlayer",
      "outputs": [],
      "payable": true,
      "stateMutability": "payable",
      "type": "function",
      "signature": "0x7de81fca"
    },
    {
      "constant": false,
      "inputs": [
        {
          "name": "_playerId",
          "type": "uint256"
        },
        {
          "name": "_price",
          "type": "uint256"
        }
      ],
      "name": "preparePlayerForTransfer",
      "outputs": [],
      "payable": false,
      "stateMutability": "nonpayable",
      "type": "function",
      "signature": "0x7d8fd9b5"
    },
    {
      "constant": true,
      "inputs": [
        {
          "name": "_playerId",
          "type": "uint256"
        }
      ],
      "name": "isPlayerInTransfer",
      "outputs": [
        {
          "name": "",
          "type": "bool"
        }
      ],
      "payable": false,
      "stateMutability": "view",
      "type": "function",
      "signature": "0xea35d774"
    },
    {
      "constant": true,
      "inputs": [
        {
          "name": "_playerId",
          "type": "uint256"
        }
      ],
      "name": "getPlayerSellPrice",
      "outputs": [
        {
          "name": "",
          "type": "uint256"
        }
      ],
      "payable": false,
      "stateMutability": "view",
      "type": "function",
      "signature": "0x6aa3eb09"
    },
    {
      "constant": true,
      "inputs": [],
      "name": "getAllPlayers",
      "outputs": [
        {
          "name": "",
          "type": "uint256[]"
        }
      ],
      "payable": false,
      "stateMutability": "view",
      "type": "function",
      "signature": "0xefa1c482"
    },
    {
      "constant": true,
      "inputs": [
        {
          "name": "_playerId",
          "type": "uint256"
        }
      ],
      "name": "getPlayerOwner",
      "outputs": [
        {
          "name": "",
          "type": "address"
        }
      ],
      "payable": false,
      "stateMutability": "view",
      "type": "function",
      "signature": "0x56c26f25"
    },
    {
      "constant": true,
      "inputs": [],
      "name": "getPlayersCount",
      "outputs": [
        {
          "name": "",
          "type": "uint256"
        }
      ],
      "payable": false,
      "stateMutability": "view",
      "type": "function",
      "signature": "0xa76594bf"
    },
    {
      "constant": true,
      "inputs": [
        {
          "name": "_playerId",
          "type": "uint256"
        }
      ],
      "name": "getPlayerName",
      "outputs": [
        {
          "name": "",
          "type": "string"
        }
      ],
      "payable": false,
      "stateMutability": "view",
      "type": "function",
      "signature": "0x82e37b2c"
    },
    {
      "constant": false,
      "inputs": [],
      "name": "getTest",
      "outputs": [
        {
          "name": "",
          "type": "uint256[]"
        }
      ],
      "payable": true,
      "stateMutability": "payable",
      "type": "function",
      "signature": "0xa8cd0a80"
    }
  ],
  "bytecode": "0x6080604052600360075534801561001557600080fd5b50610d3a806100256000396000f3fe6080604052600436106100ae576000357c01000000000000000000000000000000000000000000000000000000009004806382e37b2c1161007657806382e37b2c146102c5578063a76594bf14610379578063a8cd0a80146103a4578063ea35d77414610403578063efa1c48214610456576100ae565b806354e79027146100b357806356c26f25146101885780636aa3eb09146102035780637d8fd9b5146102525780637de81fca14610297575b600080fd5b3480156100bf57600080fd5b50610186600480360360408110156100d657600080fd5b81019080803590602001906401000000008111156100f357600080fd5b82018360208201111561010557600080fd5b8035906020019184600183028401116401000000008311171561012757600080fd5b91908080601f016020809104026020016040519081016040528093929190818152602001838380828437600081840152601f19601f820116905080830192505050505050509192919290803560ff1690602001909291905050506104c2565b005b34801561019457600080fd5b506101c1600480360360208110156101ab57600080fd5b81019080803590602001909291905050506106ff565b604051808273ffffffffffffffffffffffffffffffffffffffff1673ffffffffffffffffffffffffffffffffffffffff16815260200191505060405180910390f35b34801561020f57600080fd5b5061023c6004803603602081101561022657600080fd5b810190808035906020019092919050505061073c565b6040518082815260200191505060405180910390f35b34801561025e57600080fd5b506102956004803603604081101561027557600080fd5b810190808035906020019092919080359060200190929190505050610759565b005b6102c3600480360360208110156102ad57600080fd5b810190808035906020019092919050505061086a565b005b3480156102d157600080fd5b506102fe600480360360208110156102e857600080fd5b8101908080359060200190929190505050610a2a565b6040518080602001828103825283818151815260200191508051906020019080838360005b8381101561033e578082015181840152602081019050610323565b50505050905090810190601f16801561036b5780820380516001836020036101000a031916815260200191505b509250505060405180910390f35b34801561038557600080fd5b5061038e610ae5565b6040518082815260200191505060405180910390f35b6103ac610b2c565b6040518080602001828103825283818151815260200191508051906020019060200280838360005b838110156103ef5780820151818401526020810190506103d4565b505050509050019250505060405180910390f35b34801561040f57600080fd5b5061043c6004803603602081101561042657600080fd5b8101908080359060200190929190505050610bc6565b604051808215151515815260200191505060405180910390f35b34801561046257600080fd5b5061046b610bf0565b6040518080602001828103825283818151815260200191508051906020019060200280838360005b838110156104ae578082015181840152602081019050610493565b505050509050019250505060405180910390f35b600754600560003373ffffffffffffffffffffffffffffffffffffffff1673ffffffffffffffffffffffffffffffffffffffff1681526020019081526020016000205410151561051157600080fd5b60008080549050905060008190806001815401808255809150509060018203906000526020600020016000909192909190915055506001839080600181540180825580915050906001820390600052602060002001600090919290919091509080519060200190610583929190610c69565b5050600282908060018154018082558091505090600182039060005260206000209060209182820401919006909192909190916101000a81548160ff021916908360ff1602179055505060006003600083815260200190815260200160002060006101000a81548160ff02191690831515021790555060006006600083815260200190815260200160002081905550336004600083815260200190815260200160002060006101000a81548173ffffffffffffffffffffffffffffffffffffffff021916908373ffffffffffffffffffffffffffffffffffffffff1602179055506106b76001600560003373ffffffffffffffffffffffffffffffffffffffff1673ffffffffffffffffffffffffffffffffffffffff16815260200190815260200160002054610c4890919063ffffffff16565b600560003373ffffffffffffffffffffffffffffffffffffffff1673ffffffffffffffffffffffffffffffffffffffff16815260200190815260200160002081905550505050565b60006004600083815260200190815260200160002060009054906101000a900473ffffffffffffffffffffffffffffffffffffffff169050919050565b600060066000838152602001908152602001600020549050919050565b813373ffffffffffffffffffffffffffffffffffffffff166004600083815260200190815260200160002060009054906101000a900473ffffffffffffffffffffffffffffffffffffffff1673ffffffffffffffffffffffffffffffffffffffff161415156107c757600080fd5b600015156107d484610bc6565b15151415156107e257600080fd5b81600660008581526020019081526020016000208190555060016003600085815260200190815260200160002060006101000a81548160ff0219169083151502179055507f290a2094c17608b441204837126eae55c1be59bc7c49df1664f37dfddce393228383604051808381526020018281526020019250505060405180910390a1505050565b600060066000838152602001908152602001600020549050600754600560003373ffffffffffffffffffffffffffffffffffffffff1673ffffffffffffffffffffffffffffffffffffffff168152602001908152602001600020541015156108d157600080fd5b600115156108de83610bc6565b15151415156108ec57600080fd5b8034101515156108fb57600080fd5b6000610906836106ff565b9050336004600085815260200190815260200160002060006101000a81548173ffffffffffffffffffffffffffffffffffffffff021916908373ffffffffffffffffffffffffffffffffffffffff1602179055506000600660008581526020019081526020016000208190555060006003600085815260200190815260200160002060006101000a81548160ff0219169083151502179055508073ffffffffffffffffffffffffffffffffffffffff166108fc349081150290604051600060405180830381858888f193505050501580156109e5573d6000803e3d6000fd5b507f9a4f32625b2bfc4bde96e2a4b1181108991581e1a2658c63c3e20f3ac83f7f2d8383604051808381526020018281526020019250505060405180910390a1505050565b6060600182815481101515610a3b57fe5b906000526020600020018054600181600116156101000203166002900480601f016020809104026020016040519081016040528092919081815260200182805460018160011615610100020316600290048015610ad95780601f10610aae57610100808354040283529160200191610ad9565b820191906000526020600020905b815481529060010190602001808311610abc57829003601f168201915b50505050509050919050565b6000600560003373ffffffffffffffffffffffffffffffffffffffff1673ffffffffffffffffffffffffffffffffffffffff16815260200190815260200160002054905090565b6060806003604051908082528060200260200182016040528015610b5f5781602001602082028038833980820191505090505b5090506001816000815181101515610b7357fe5b90602001906020020181815250506002816001815181101515610b9257fe5b90602001906020020181815250506003816002815181101515610bb157fe5b90602001906020020181815250508091505090565b60006003600083815260200190815260200160002060009054906101000a900460ff169050919050565b60606000805480602002602001604051908101604052809291908181526020018280548015610c3e57602002820191906000526020600020905b815481526020019060010190808311610c2a575b5050505050905090565b6000808284019050838110151515610c5f57600080fd5b8091505092915050565b828054600181600116156101000203166002900490600052602060002090601f016020900481019282601f10610caa57805160ff1916838001178555610cd8565b82800160010185558215610cd8579182015b82811115610cd7578251825591602001919060010190610cbc565b5b509050610ce59190610ce9565b5090565b610d0b91905b80821115610d07576000816000905550600101610cef565b5090565b9056fea165627a7a7230582047d234442ebaea403c14a3932964f7f74a96a6bde47f8ca00b62b0e1d019f97e0029",
  "source": "pragma solidity ^0.5.2;\n\n\nimport \"openzeppelin-solidity/contracts/math/SafeMath.sol\";\nimport \"openzeppelin-solidity/contracts/token/ERC20/IERC20.sol\";\n\n\ncontract Football {\n    using SafeMath for uint256;\n\n    event BuyPlayerEvent(uint playerId, uint cost);\n    event PrepareTransferEvent(uint playerId, uint price);\n\n\n    uint[] private _playersIds;\n    string[]  private _playerName;\n    uint8[]  private _playerAge;\n    mapping(uint => bool) private _playerInTransfer;\n\n    mapping(uint => address payable) private _playersToOwner;\n    mapping(address => uint) private _ownerPlayersCount;\n    mapping(uint => uint) private _playersSellPrice;\n\n    uint maxPlayersCount = 3;\n\n    constructor() public {\n\n    }\n    //work\n    function addPlayer(string memory _name, uint8 _age) public {\n        require(_ownerPlayersCount[msg.sender] < maxPlayersCount);\n        uint newPlayerId = _playersIds.length;\n        _playersIds.push(newPlayerId);\n        _playerName.push(_name);\n        _playerAge.push(_age);\n        _playerInTransfer[newPlayerId] = false;\n        _playersSellPrice[newPlayerId] = 0 ether;\n\n        _playersToOwner[newPlayerId] = msg.sender;\n        _ownerPlayersCount[msg.sender] = _ownerPlayersCount[msg.sender].add(1);\n    }\n\n    // work\n    function buyPlayer(uint _playerId) public payable{\n        uint playerSellPrice = _playersSellPrice[_playerId];\n\n        require(_ownerPlayersCount[msg.sender] < maxPlayersCount);\n        require(isPlayerInTransfer(_playerId) == true);\n        require(msg.value >= playerSellPrice);\n\n        address payable _oldOwner = getPlayerOwner(_playerId);\n\n        _playersToOwner[_playerId] = msg.sender;\n        _playersSellPrice[_playerId] = 0 ether;\n        _playerInTransfer[_playerId] = false;\n\n        _oldOwner.transfer(msg.value);\n\n        emit BuyPlayerEvent(_playerId, playerSellPrice);\n\n    }\n\n    function preparePlayerForTransfer(uint _playerId, uint _price) public _onlyPlayerOwner(_playerId) {\n        require(isPlayerInTransfer(_playerId) == false);\n        //        require(_ownerPlayersCount[msg.sender] > 0);\n\n        _playersSellPrice[_playerId] = _price;\n        _playerInTransfer[_playerId] = true;\n\n        emit PrepareTransferEvent(_playerId, _price);\n    }\n\n    // work\n    function isPlayerInTransfer(uint _playerId) public view returns (bool){\n        return _playerInTransfer[_playerId];\n    }\n\n    // work\n    function getPlayerSellPrice(uint _playerId) public view returns (uint){\n        return _playersSellPrice[_playerId];\n    }\n\n    // work\n    function getAllPlayers() public view returns (uint[] memory){\n        return _playersIds;\n    }\n\n    // work\n    function getPlayerOwner(uint _playerId) public view returns (address payable){\n        return _playersToOwner[_playerId];\n    }\n\n    // work\n    function getPlayersCount() public view returns (uint){\n        return _ownerPlayersCount[msg.sender];\n    }\n\n    // work\n    function getPlayerName(uint _playerId) public view returns (string memory){\n        return _playerName[_playerId];\n    }\n\n\n    function getTest() public payable returns (uint[] memory){\n        uint[] memory test = new uint[](3);\n        test[0] = 1;\n        test[1] = 2;\n        test[2] = 3;\n        return test;\n    }\n\n    modifier _onlyPlayerOwner(uint _playerId){\n        require(_playersToOwner[_playerId] == msg.sender);\n        _;\n\n    }\n\n\n}\n",
  "sourcePath": "/Users/artemradkevic/development/blockchain/football/contracts/Football.sol",
  "compiler": {
    "name": "solc",
    "version": "0.5.2+commit.1df8f40c.Emscripten.clang"
  },
  "schemaVersion": "3.0.6",
  "updatedAt": "2019-04-21T18:11:15.380Z",
  "devdoc": {
    "methods": {}
  },
  "userdoc": {
    "methods": {}
  }
}